{
  "contracts/Multicall.sol": {
    "Multicall": {
      "abi": [
        {
          "constant": false,
          "inputs": [
            {
              "components": [
                {
                  "internalType": "address",
                  "name": "target",
                  "type": "address"
                },
                {
                  "internalType": "bytes",
                  "name": "callData",
                  "type": "bytes"
                }
              ],
              "internalType": "struct Multicall.Call[]",
              "name": "calls",
              "type": "tuple[]"
            }
          ],
          "name": "aggregate",
          "outputs": [
            {
              "internalType": "uint256",
              "name": "blockNumber",
              "type": "uint256"
            },
            {
              "internalType": "bytes[]",
              "name": "returnData",
              "type": "bytes[]"
            }
          ],
          "payable": false,
          "stateMutability": "nonpayable",
          "type": "function"
        },
        {
          "constant": true,
          "inputs": [
            {
              "internalType": "uint256",
              "name": "blockNumber",
              "type": "uint256"
            }
          ],
          "name": "getBlockHash",
          "outputs": [
            {
              "internalType": "bytes32",
              "name": "blockHash",
              "type": "bytes32"
            }
          ],
          "payable": false,
          "stateMutability": "view",
          "type": "function"
        },
        {
          "constant": true,
          "inputs": [],
          "name": "getCurrentBlockCoinbase",
          "outputs": [
            {
              "internalType": "address",
              "name": "coinbase",
              "type": "address"
            }
          ],
          "payable": false,
          "stateMutability": "view",
          "type": "function"
        },
        {
          "constant": true,
          "inputs": [],
          "name": "getCurrentBlockDifficulty",
          "outputs": [
            {
              "internalType": "uint256",
              "name": "difficulty",
              "type": "uint256"
            }
          ],
          "payable": false,
          "stateMutability": "view",
          "type": "function"
        },
        {
          "constant": true,
          "inputs": [],
          "name": "getCurrentBlockGasLimit",
          "outputs": [
            {
              "internalType": "uint256",
              "name": "gaslimit",
              "type": "uint256"
            }
          ],
          "payable": false,
          "stateMutability": "view",
          "type": "function"
        },
        {
          "constant": true,
          "inputs": [],
          "name": "getCurrentBlockTimestamp",
          "outputs": [
            {
              "internalType": "uint256",
              "name": "timestamp",
              "type": "uint256"
            }
          ],
          "payable": false,
          "stateMutability": "view",
          "type": "function"
        },
        {
          "constant": true,
          "inputs": [
            {
              "internalType": "address",
              "name": "addr",
              "type": "address"
            }
          ],
          "name": "getEthBalance",
          "outputs": [
            {
              "internalType": "uint256",
              "name": "balance",
              "type": "uint256"
            }
          ],
          "payable": false,
          "stateMutability": "view",
          "type": "function"
        },
        {
          "constant": true,
          "inputs": [],
          "name": "getLastBlockHash",
          "outputs": [
            {
              "internalType": "bytes32",
              "name": "blockHash",
              "type": "bytes32"
            }
          ],
          "payable": false,
          "stateMutability": "view",
          "type": "function"
        }
      ],
      "evm": {
        "bytecode": {
          "linkReferences": {},
          "object": "608060405234801561001057600080fd5b50610699806100206000396000f3fe608060405234801561001057600080fd5b50600436106100885760003560e01c806372425d9d1161005b57806372425d9d146100e757806386d516e8146100ef578063a8b0574e146100f7578063ee82ac5e1461010c57610088565b80630f28c97d1461008d578063252dba42146100ab57806327e86d6e146100cc5780634d2301cc146100d4575b600080fd5b61009561011f565b6040516100a29190610520565b60405180910390f35b6100be6100b93660046103b3565b610123565b6040516100a292919061052e565b610095610231565b6100956100e236600461038d565b61023a565b610095610247565b61009561024b565b6100ff61024f565b6040516100a29190610512565b61009561011a3660046103e8565b610253565b4290565b60006060439150825160405190808252806020026020018201604052801561015f57816020015b606081526020019060019003908161014a5790505b50905060005b835181101561022b576000606085838151811061017e57fe5b6020026020010151600001516001600160a01b031686848151811061019f57fe5b6020026020010151602001516040516101b89190610506565b6000604051808303816000865af19150503d80600081146101f5576040519150601f19603f3d011682016040523d82523d6000602084013e6101fa565b606091505b50915091508161020957600080fd5b8084848151811061021657fe5b60209081029190910101525050600101610165565b50915091565b60001943014090565b6001600160a01b03163190565b4490565b4590565b4190565b4090565b803561026281610636565b92915050565b600082601f83011261027957600080fd5b813561028c61028782610575565b61054e565b81815260209384019390925082018360005b838110156102ca57813586016102b48882610323565b845250602092830192919091019060010161029e565b5050505092915050565b600082601f8301126102e557600080fd5b81356102f361028782610596565b9150808252602083016020830185838301111561030f57600080fd5b61031a8382846105f0565b50505092915050565b60006040828403121561033557600080fd5b61033f604061054e565b9050600061034d8484610257565b825250602082013567ffffffffffffffff81111561036a57600080fd5b610376848285016102d4565b60208301525092915050565b80356102628161064d565b60006020828403121561039f57600080fd5b60006103ab8484610257565b949350505050565b6000602082840312156103c557600080fd5b813567ffffffffffffffff8111156103dc57600080fd5b6103ab84828501610268565b6000602082840312156103fa57600080fd5b60006103ab8484610382565b6000610412838361049f565b9392505050565b610422816105d6565b82525050565b6000610433826105c4565b61043d81856105c8565b93508360208202850161044f856105be565b8060005b85811015610489578484038952815161046c8582610406565b9450610477836105be565b60209a909a0199925050600101610453565b5091979650505050505050565b610422816105e1565b60006104aa826105c4565b6104b481856105c8565b93506104c48185602086016105fc565b6104cd8161062c565b9093019392505050565b60006104e2826105c4565b6104ec81856105d1565b93506104fc8185602086016105fc565b9290920192915050565b600061041282846104d7565b602081016102628284610419565b602081016102628284610496565b6040810161053c8285610496565b81810360208301526103ab8184610428565b60405181810167ffffffffffffffff8111828210171561056d57600080fd5b604052919050565b600067ffffffffffffffff82111561058c57600080fd5b5060209081020190565b600067ffffffffffffffff8211156105ad57600080fd5b506020601f91909101601f19160190565b60200190565b5190565b90815260200190565b919050565b6000610262826105e4565b90565b6001600160a01b031690565b82818337506000910152565b60005b838110156106175781810151838201526020016105ff565b83811115610626576000848401525b50505050565b601f01601f191690565b61063f816105d6565b811461064a57600080fd5b50565b61063f816105e156fea365627a7a723158209b20eb794e4e96d0a755a0b32ad978d57b25d44c40f7452b685ca93ee17e91636c6578706572696d656e74616cf564736f6c634300050c0040",
          "opcodes": "PUSH1 0x80 PUSH1 0x40 MSTORE CALLVALUE DUP1 ISZERO PUSH2 0x10 JUMPI PUSH1 0x0 DUP1 REVERT JUMPDEST POP PUSH2 0x699 DUP1 PUSH2 0x20 PUSH1 0x0 CODECOPY PUSH1 0x0 RETURN INVALID PUSH1 0x80 PUSH1 0x40 MSTORE CALLVALUE DUP1 ISZERO PUSH2 0x10 JUMPI PUSH1 0x0 DUP1 REVERT JUMPDEST POP PUSH1 0x4 CALLDATASIZE LT PUSH2 0x88 JUMPI PUSH1 0x0 CALLDATALOAD PUSH1 0xE0 SHR DUP1 PUSH4 0x72425D9D GT PUSH2 0x5B JUMPI DUP1 PUSH4 0x72425D9D EQ PUSH2 0xE7 JUMPI DUP1 PUSH4 0x86D516E8 EQ PUSH2 0xEF JUMPI DUP1 PUSH4 0xA8B0574E EQ PUSH2 0xF7 JUMPI DUP1 PUSH4 0xEE82AC5E EQ PUSH2 0x10C JUMPI PUSH2 0x88 JUMP JUMPDEST DUP1 PUSH4 0xF28C97D EQ PUSH2 0x8D JUMPI DUP1 PUSH4 0x252DBA42 EQ PUSH2 0xAB JUMPI DUP1 PUSH4 0x27E86D6E EQ PUSH2 0xCC JUMPI DUP1 PUSH4 0x4D2301CC EQ PUSH2 0xD4 JUMPI JUMPDEST PUSH1 0x0 DUP1 REVERT JUMPDEST PUSH2 0x95 PUSH2 0x11F JUMP JUMPDEST PUSH1 0x40 MLOAD PUSH2 0xA2 SWAP2 SWAP1 PUSH2 0x520 JUMP JUMPDEST PUSH1 0x40 MLOAD DUP1 SWAP2 SUB SWAP1 RETURN JUMPDEST PUSH2 0xBE PUSH2 0xB9 CALLDATASIZE PUSH1 0x4 PUSH2 0x3B3 JUMP JUMPDEST PUSH2 0x123 JUMP JUMPDEST PUSH1 0x40 MLOAD PUSH2 0xA2 SWAP3 SWAP2 SWAP1 PUSH2 0x52E JUMP JUMPDEST PUSH2 0x95 PUSH2 0x231 JUMP JUMPDEST PUSH2 0x95 PUSH2 0xE2 CALLDATASIZE PUSH1 0x4 PUSH2 0x38D JUMP JUMPDEST PUSH2 0x23A JUMP JUMPDEST PUSH2 0x95 PUSH2 0x247 JUMP JUMPDEST PUSH2 0x95 PUSH2 0x24B JUMP JUMPDEST PUSH2 0xFF PUSH2 0x24F JUMP JUMPDEST PUSH1 0x40 MLOAD PUSH2 0xA2 SWAP2 SWAP1 PUSH2 0x512 JUMP JUMPDEST PUSH2 0x95 PUSH2 0x11A CALLDATASIZE PUSH1 0x4 PUSH2 0x3E8 JUMP JUMPDEST PUSH2 0x253 JUMP JUMPDEST TIMESTAMP SWAP1 JUMP JUMPDEST PUSH1 0x0 PUSH1 0x60 NUMBER SWAP2 POP DUP3 MLOAD PUSH1 0x40 MLOAD SWAP1 DUP1 DUP3 MSTORE DUP1 PUSH1 0x20 MUL PUSH1 0x20 ADD DUP3 ADD PUSH1 0x40 MSTORE DUP1 ISZERO PUSH2 0x15F JUMPI DUP2 PUSH1 0x20 ADD JUMPDEST PUSH1 0x60 DUP2 MSTORE PUSH1 0x20 ADD SWAP1 PUSH1 0x1 SWAP1 SUB SWAP1 DUP2 PUSH2 0x14A JUMPI SWAP1 POP JUMPDEST POP SWAP1 POP PUSH1 0x0 JUMPDEST DUP4 MLOAD DUP2 LT ISZERO PUSH2 0x22B JUMPI PUSH1 0x0 PUSH1 0x60 DUP6 DUP4 DUP2 MLOAD DUP2 LT PUSH2 0x17E JUMPI INVALID JUMPDEST PUSH1 0x20 MUL PUSH1 0x20 ADD ADD MLOAD PUSH1 0x0 ADD MLOAD PUSH1 0x1 PUSH1 0x1 PUSH1 0xA0 SHL SUB AND DUP7 DUP5 DUP2 MLOAD DUP2 LT PUSH2 0x19F JUMPI INVALID JUMPDEST PUSH1 0x20 MUL PUSH1 0x20 ADD ADD MLOAD PUSH1 0x20 ADD MLOAD PUSH1 0x40 MLOAD PUSH2 0x1B8 SWAP2 SWAP1 PUSH2 0x506 JUMP JUMPDEST PUSH1 0x0 PUSH1 0x40 MLOAD DUP1 DUP4 SUB DUP2 PUSH1 0x0 DUP7 GAS CALL SWAP2 POP POP RETURNDATASIZE DUP1 PUSH1 0x0 DUP2 EQ PUSH2 0x1F5 JUMPI PUSH1 0x40 MLOAD SWAP2 POP PUSH1 0x1F NOT PUSH1 0x3F RETURNDATASIZE ADD AND DUP3 ADD PUSH1 0x40 MSTORE RETURNDATASIZE DUP3 MSTORE RETURNDATASIZE PUSH1 0x0 PUSH1 0x20 DUP5 ADD RETURNDATACOPY PUSH2 0x1FA JUMP JUMPDEST PUSH1 0x60 SWAP2 POP JUMPDEST POP SWAP2 POP SWAP2 POP DUP2 PUSH2 0x209 JUMPI PUSH1 0x0 DUP1 REVERT JUMPDEST DUP1 DUP5 DUP5 DUP2 MLOAD DUP2 LT PUSH2 0x216 JUMPI INVALID JUMPDEST PUSH1 0x20 SWAP1 DUP2 MUL SWAP2 SWAP1 SWAP2 ADD ADD MSTORE POP POP PUSH1 0x1 ADD PUSH2 0x165 JUMP JUMPDEST POP SWAP2 POP SWAP2 JUMP JUMPDEST PUSH1 0x0 NOT NUMBER ADD BLOCKHASH SWAP1 JUMP JUMPDEST PUSH1 0x1 PUSH1 0x1 PUSH1 0xA0 SHL SUB AND BALANCE SWAP1 JUMP JUMPDEST DIFFICULTY SWAP1 JUMP JUMPDEST GASLIMIT SWAP1 JUMP JUMPDEST COINBASE SWAP1 JUMP JUMPDEST BLOCKHASH SWAP1 JUMP JUMPDEST DUP1 CALLDATALOAD PUSH2 0x262 DUP2 PUSH2 0x636 JUMP JUMPDEST SWAP3 SWAP2 POP POP JUMP JUMPDEST PUSH1 0x0 DUP3 PUSH1 0x1F DUP4 ADD SLT PUSH2 0x279 JUMPI PUSH1 0x0 DUP1 REVERT JUMPDEST DUP2 CALLDATALOAD PUSH2 0x28C PUSH2 0x287 DUP3 PUSH2 0x575 JUMP JUMPDEST PUSH2 0x54E JUMP JUMPDEST DUP2 DUP2 MSTORE PUSH1 0x20 SWAP4 DUP5 ADD SWAP4 SWAP1 SWAP3 POP DUP3 ADD DUP4 PUSH1 0x0 JUMPDEST DUP4 DUP2 LT ISZERO PUSH2 0x2CA JUMPI DUP2 CALLDATALOAD DUP7 ADD PUSH2 0x2B4 DUP9 DUP3 PUSH2 0x323 JUMP JUMPDEST DUP5 MSTORE POP PUSH1 0x20 SWAP3 DUP4 ADD SWAP3 SWAP2 SWAP1 SWAP2 ADD SWAP1 PUSH1 0x1 ADD PUSH2 0x29E JUMP JUMPDEST POP POP POP POP SWAP3 SWAP2 POP POP JUMP JUMPDEST PUSH1 0x0 DUP3 PUSH1 0x1F DUP4 ADD SLT PUSH2 0x2E5 JUMPI PUSH1 0x0 DUP1 REVERT JUMPDEST DUP2 CALLDATALOAD PUSH2 0x2F3 PUSH2 0x287 DUP3 PUSH2 0x596 JUMP JUMPDEST SWAP2 POP DUP1 DUP3 MSTORE PUSH1 0x20 DUP4 ADD PUSH1 0x20 DUP4 ADD DUP6 DUP4 DUP4 ADD GT ISZERO PUSH2 0x30F JUMPI PUSH1 0x0 DUP1 REVERT JUMPDEST PUSH2 0x31A DUP4 DUP3 DUP5 PUSH2 0x5F0 JUMP JUMPDEST POP POP POP SWAP3 SWAP2 POP POP JUMP JUMPDEST PUSH1 0x0 PUSH1 0x40 DUP3 DUP5 SUB SLT ISZERO PUSH2 0x335 JUMPI PUSH1 0x0 DUP1 REVERT JUMPDEST PUSH2 0x33F PUSH1 0x40 PUSH2 0x54E JUMP JUMPDEST SWAP1 POP PUSH1 0x0 PUSH2 0x34D DUP5 DUP5 PUSH2 0x257 JUMP JUMPDEST DUP3 MSTORE POP PUSH1 0x20 DUP3 ADD CALLDATALOAD PUSH8 0xFFFFFFFFFFFFFFFF DUP2 GT ISZERO PUSH2 0x36A JUMPI PUSH1 0x0 DUP1 REVERT JUMPDEST PUSH2 0x376 DUP5 DUP3 DUP6 ADD PUSH2 0x2D4 JUMP JUMPDEST PUSH1 0x20 DUP4 ADD MSTORE POP SWAP3 SWAP2 POP POP JUMP JUMPDEST DUP1 CALLDATALOAD PUSH2 0x262 DUP2 PUSH2 0x64D JUMP JUMPDEST PUSH1 0x0 PUSH1 0x20 DUP3 DUP5 SUB SLT ISZERO PUSH2 0x39F JUMPI PUSH1 0x0 DUP1 REVERT JUMPDEST PUSH1 0x0 PUSH2 0x3AB DUP5 DUP5 PUSH2 0x257 JUMP JUMPDEST SWAP5 SWAP4 POP POP POP POP JUMP JUMPDEST PUSH1 0x0 PUSH1 0x20 DUP3 DUP5 SUB SLT ISZERO PUSH2 0x3C5 JUMPI PUSH1 0x0 DUP1 REVERT JUMPDEST DUP2 CALLDATALOAD PUSH8 0xFFFFFFFFFFFFFFFF DUP2 GT ISZERO PUSH2 0x3DC JUMPI PUSH1 0x0 DUP1 REVERT JUMPDEST PUSH2 0x3AB DUP5 DUP3 DUP6 ADD PUSH2 0x268 JUMP JUMPDEST PUSH1 0x0 PUSH1 0x20 DUP3 DUP5 SUB SLT ISZERO PUSH2 0x3FA JUMPI PUSH1 0x0 DUP1 REVERT JUMPDEST PUSH1 0x0 PUSH2 0x3AB DUP5 DUP5 PUSH2 0x382 JUMP JUMPDEST PUSH1 0x0 PUSH2 0x412 DUP4 DUP4 PUSH2 0x49F JUMP JUMPDEST SWAP4 SWAP3 POP POP POP JUMP JUMPDEST PUSH2 0x422 DUP2 PUSH2 0x5D6 JUMP JUMPDEST DUP3 MSTORE POP POP JUMP JUMPDEST PUSH1 0x0 PUSH2 0x433 DUP3 PUSH2 0x5C4 JUMP JUMPDEST PUSH2 0x43D DUP2 DUP6 PUSH2 0x5C8 JUMP JUMPDEST SWAP4 POP DUP4 PUSH1 0x20 DUP3 MUL DUP6 ADD PUSH2 0x44F DUP6 PUSH2 0x5BE JUMP JUMPDEST DUP1 PUSH1 0x0 JUMPDEST DUP6 DUP2 LT ISZERO PUSH2 0x489 JUMPI DUP5 DUP5 SUB DUP10 MSTORE DUP2 MLOAD PUSH2 0x46C DUP6 DUP3 PUSH2 0x406 JUMP JUMPDEST SWAP5 POP PUSH2 0x477 DUP4 PUSH2 0x5BE JUMP JUMPDEST PUSH1 0x20 SWAP11 SWAP1 SWAP11 ADD SWAP10 SWAP3 POP POP PUSH1 0x1 ADD PUSH2 0x453 JUMP JUMPDEST POP SWAP2 SWAP8 SWAP7 POP POP POP POP POP POP POP JUMP JUMPDEST PUSH2 0x422 DUP2 PUSH2 0x5E1 JUMP JUMPDEST PUSH1 0x0 PUSH2 0x4AA DUP3 PUSH2 0x5C4 JUMP JUMPDEST PUSH2 0x4B4 DUP2 DUP6 PUSH2 0x5C8 JUMP JUMPDEST SWAP4 POP PUSH2 0x4C4 DUP2 DUP6 PUSH1 0x20 DUP7 ADD PUSH2 0x5FC JUMP JUMPDEST PUSH2 0x4CD DUP2 PUSH2 0x62C JUMP JUMPDEST SWAP1 SWAP4 ADD SWAP4 SWAP3 POP POP POP JUMP JUMPDEST PUSH1 0x0 PUSH2 0x4E2 DUP3 PUSH2 0x5C4 JUMP JUMPDEST PUSH2 0x4EC DUP2 DUP6 PUSH2 0x5D1 JUMP JUMPDEST SWAP4 POP PUSH2 0x4FC DUP2 DUP6 PUSH1 0x20 DUP7 ADD PUSH2 0x5FC JUMP JUMPDEST SWAP3 SWAP1 SWAP3 ADD SWAP3 SWAP2 POP POP JUMP JUMPDEST PUSH1 0x0 PUSH2 0x412 DUP3 DUP5 PUSH2 0x4D7 JUMP JUMPDEST PUSH1 0x20 DUP2 ADD PUSH2 0x262 DUP3 DUP5 PUSH2 0x419 JUMP JUMPDEST PUSH1 0x20 DUP2 ADD PUSH2 0x262 DUP3 DUP5 PUSH2 0x496 JUMP JUMPDEST PUSH1 0x40 DUP2 ADD PUSH2 0x53C DUP3 DUP6 PUSH2 0x496 JUMP JUMPDEST DUP2 DUP2 SUB PUSH1 0x20 DUP4 ADD MSTORE PUSH2 0x3AB DUP2 DUP5 PUSH2 0x428 JUMP JUMPDEST PUSH1 0x40 MLOAD DUP2 DUP2 ADD PUSH8 0xFFFFFFFFFFFFFFFF DUP2 GT DUP3 DUP3 LT OR ISZERO PUSH2 0x56D JUMPI PUSH1 0x0 DUP1 REVERT JUMPDEST PUSH1 0x40 MSTORE SWAP2 SWAP1 POP JUMP JUMPDEST PUSH1 0x0 PUSH8 0xFFFFFFFFFFFFFFFF DUP3 GT ISZERO PUSH2 0x58C JUMPI PUSH1 0x0 DUP1 REVERT JUMPDEST POP PUSH1 0x20 SWAP1 DUP2 MUL ADD SWAP1 JUMP JUMPDEST PUSH1 0x0 PUSH8 0xFFFFFFFFFFFFFFFF DUP3 GT ISZERO PUSH2 0x5AD JUMPI PUSH1 0x0 DUP1 REVERT JUMPDEST POP PUSH1 0x20 PUSH1 0x1F SWAP2 SWAP1 SWAP2 ADD PUSH1 0x1F NOT AND ADD SWAP1 JUMP JUMPDEST PUSH1 0x20 ADD SWAP1 JUMP JUMPDEST MLOAD SWAP1 JUMP JUMPDEST SWAP1 DUP2 MSTORE PUSH1 0x20 ADD SWAP1 JUMP JUMPDEST SWAP2 SWAP1 POP JUMP JUMPDEST PUSH1 0x0 PUSH2 0x262 DUP3 PUSH2 0x5E4 JUMP JUMPDEST SWAP1 JUMP JUMPDEST PUSH1 0x1 PUSH1 0x1 PUSH1 0xA0 SHL SUB AND SWAP1 JUMP JUMPDEST DUP3 DUP2 DUP4 CALLDATACOPY POP PUSH1 0x0 SWAP2 ADD MSTORE JUMP JUMPDEST PUSH1 0x0 JUMPDEST DUP4 DUP2 LT ISZERO PUSH2 0x617 JUMPI DUP2 DUP2 ADD MLOAD DUP4 DUP3 ADD MSTORE PUSH1 0x20 ADD PUSH2 0x5FF JUMP JUMPDEST DUP4 DUP2 GT ISZERO PUSH2 0x626 JUMPI PUSH1 0x0 DUP5 DUP5 ADD MSTORE JUMPDEST POP POP POP POP JUMP JUMPDEST PUSH1 0x1F ADD PUSH1 0x1F NOT AND SWAP1 JUMP JUMPDEST PUSH2 0x63F DUP2 PUSH2 0x5D6 JUMP JUMPDEST DUP2 EQ PUSH2 0x64A JUMPI PUSH1 0x0 DUP1 REVERT JUMPDEST POP JUMP JUMPDEST PUSH2 0x63F DUP2 PUSH2 0x5E1 JUMP INVALID LOG3 PUSH6 0x627A7A723158 KECCAK256 SWAP12 KECCAK256 0xeb PUSH26 0x4E4E96D0A755A0B32AD978D57B25D44C40F7452B685CA93EE17E SWAP2 PUSH4 0x6C657870 PUSH6 0x72696D656E74 PUSH2 0x6CF5 PUSH5 0x736F6C6343 STOP SDIV 0xc STOP BLOCKHASH "
        },
        "methodIdentifiers": {
          "aggregate((address,bytes)[])": "252dba42",
          "getBlockHash(uint256)": "ee82ac5e",
          "getCurrentBlockCoinbase()": "a8b0574e",
          "getCurrentBlockDifficulty()": "72425d9d",
          "getCurrentBlockGasLimit()": "86d516e8",
          "getCurrentBlockTimestamp()": "0f28c97d",
          "getEthBalance(address)": "4d2301cc",
          "getLastBlockHash()": "27e86d6e"
        }
      }
    }
  }
}