{
  "_format": "hh-sol-artifact-1",
  "contractName": "ExchangeProxy",
  "sourceName": "contracts/ExchangeProxy.sol",
  "abi": [
    {
      "inputs": [
        {
          "internalType": "address",
          "name": "_weth",
          "type": "address"
        }
      ],
      "payable": false,
      "stateMutability": "nonpayable",
      "type": "constructor"
    },
    {
      "anonymous": true,
      "inputs": [
        {
          "indexed": true,
          "internalType": "bytes4",
          "name": "sig",
          "type": "bytes4"
        },
        {
          "indexed": true,
          "internalType": "address",
          "name": "caller",
          "type": "address"
        },
        {
          "indexed": false,
          "internalType": "bytes",
          "name": "data",
          "type": "bytes"
        }
      ],
      "name": "LOG_CALL",
      "type": "event"
    },
    {
      "payable": true,
      "stateMutability": "payable",
      "type": "fallback"
    },
    {
      "constant": false,
      "inputs": [
        {
          "components": [
            {
              "internalType": "address",
              "name": "pool",
              "type": "address"
            },
            {
              "internalType": "uint256",
              "name": "tokenInParam",
              "type": "uint256"
            },
            {
              "internalType": "uint256",
              "name": "tokenOutParam",
              "type": "uint256"
            },
            {
              "internalType": "uint256",
              "name": "maxPrice",
              "type": "uint256"
            }
          ],
          "internalType": "struct ExchangeProxy.Swap[]",
          "name": "swaps",
          "type": "tuple[]"
        },
        {
          "internalType": "address",
          "name": "tokenOut",
          "type": "address"
        },
        {
          "internalType": "uint256",
          "name": "minTotalAmountOut",
          "type": "uint256"
        }
      ],
      "name": "batchEthInSwapExactIn",
      "outputs": [
        {
          "internalType": "uint256",
          "name": "totalAmountOut",
          "type": "uint256"
        }
      ],
      "payable": true,
      "stateMutability": "payable",
      "type": "function"
    },
    {
      "constant": false,
      "inputs": [
        {
          "components": [
            {
              "internalType": "address",
              "name": "pool",
              "type": "address"
            },
            {
              "internalType": "uint256",
              "name": "tokenInParam",
              "type": "uint256"
            },
            {
              "internalType": "uint256",
              "name": "tokenOutParam",
              "type": "uint256"
            },
            {
              "internalType": "uint256",
              "name": "maxPrice",
              "type": "uint256"
            }
          ],
          "internalType": "struct ExchangeProxy.Swap[]",
          "name": "swaps",
          "type": "tuple[]"
        },
        {
          "internalType": "address",
          "name": "tokenOut",
          "type": "address"
        }
      ],
      "name": "batchEthInSwapExactOut",
      "outputs": [
        {
          "internalType": "uint256",
          "name": "totalAmountIn",
          "type": "uint256"
        }
      ],
      "payable": true,
      "stateMutability": "payable",
      "type": "function"
    },
    {
      "constant": false,
      "inputs": [
        {
          "components": [
            {
              "internalType": "address",
              "name": "pool",
              "type": "address"
            },
            {
              "internalType": "uint256",
              "name": "tokenInParam",
              "type": "uint256"
            },
            {
              "internalType": "uint256",
              "name": "tokenOutParam",
              "type": "uint256"
            },
            {
              "internalType": "uint256",
              "name": "maxPrice",
              "type": "uint256"
            }
          ],
          "internalType": "struct ExchangeProxy.Swap[]",
          "name": "swaps",
          "type": "tuple[]"
        },
        {
          "internalType": "address",
          "name": "tokenIn",
          "type": "address"
        },
        {
          "internalType": "uint256",
          "name": "totalAmountIn",
          "type": "uint256"
        },
        {
          "internalType": "uint256",
          "name": "minTotalAmountOut",
          "type": "uint256"
        }
      ],
      "name": "batchEthOutSwapExactIn",
      "outputs": [
        {
          "internalType": "uint256",
          "name": "totalAmountOut",
          "type": "uint256"
        }
      ],
      "payable": false,
      "stateMutability": "nonpayable",
      "type": "function"
    },
    {
      "constant": false,
      "inputs": [
        {
          "components": [
            {
              "internalType": "address",
              "name": "pool",
              "type": "address"
            },
            {
              "internalType": "uint256",
              "name": "tokenInParam",
              "type": "uint256"
            },
            {
              "internalType": "uint256",
              "name": "tokenOutParam",
              "type": "uint256"
            },
            {
              "internalType": "uint256",
              "name": "maxPrice",
              "type": "uint256"
            }
          ],
          "internalType": "struct ExchangeProxy.Swap[]",
          "name": "swaps",
          "type": "tuple[]"
        },
        {
          "internalType": "address",
          "name": "tokenIn",
          "type": "address"
        },
        {
          "internalType": "uint256",
          "name": "maxTotalAmountIn",
          "type": "uint256"
        }
      ],
      "name": "batchEthOutSwapExactOut",
      "outputs": [
        {
          "internalType": "uint256",
          "name": "totalAmountIn",
          "type": "uint256"
        }
      ],
      "payable": false,
      "stateMutability": "nonpayable",
      "type": "function"
    },
    {
      "constant": false,
      "inputs": [
        {
          "components": [
            {
              "internalType": "address",
              "name": "pool",
              "type": "address"
            },
            {
              "internalType": "uint256",
              "name": "tokenInParam",
              "type": "uint256"
            },
            {
              "internalType": "uint256",
              "name": "tokenOutParam",
              "type": "uint256"
            },
            {
              "internalType": "uint256",
              "name": "maxPrice",
              "type": "uint256"
            }
          ],
          "internalType": "struct ExchangeProxy.Swap[]",
          "name": "swaps",
          "type": "tuple[]"
        },
        {
          "internalType": "address",
          "name": "tokenIn",
          "type": "address"
        },
        {
          "internalType": "address",
          "name": "tokenOut",
          "type": "address"
        },
        {
          "internalType": "uint256",
          "name": "totalAmountIn",
          "type": "uint256"
        },
        {
          "internalType": "uint256",
          "name": "minTotalAmountOut",
          "type": "uint256"
        }
      ],
      "name": "batchSwapExactIn",
      "outputs": [
        {
          "internalType": "uint256",
          "name": "totalAmountOut",
          "type": "uint256"
        }
      ],
      "payable": false,
      "stateMutability": "nonpayable",
      "type": "function"
    },
    {
      "constant": false,
      "inputs": [
        {
          "components": [
            {
              "internalType": "address",
              "name": "pool",
              "type": "address"
            },
            {
              "internalType": "uint256",
              "name": "tokenInParam",
              "type": "uint256"
            },
            {
              "internalType": "uint256",
              "name": "tokenOutParam",
              "type": "uint256"
            },
            {
              "internalType": "uint256",
              "name": "maxPrice",
              "type": "uint256"
            }
          ],
          "internalType": "struct ExchangeProxy.Swap[]",
          "name": "swaps",
          "type": "tuple[]"
        },
        {
          "internalType": "address",
          "name": "tokenIn",
          "type": "address"
        },
        {
          "internalType": "address",
          "name": "tokenOut",
          "type": "address"
        },
        {
          "internalType": "uint256",
          "name": "maxTotalAmountIn",
          "type": "uint256"
        }
      ],
      "name": "batchSwapExactOut",
      "outputs": [
        {
          "internalType": "uint256",
          "name": "totalAmountIn",
          "type": "uint256"
        }
      ],
      "payable": false,
      "stateMutability": "nonpayable",
      "type": "function"
    }
  ],
  "bytecode": "0x60806040523480156200001157600080fd5b50604051620029cf380380620029cf833981016040819052620000349162000073565b600080546001600160a01b0390921661010002610100600160a81b0319909216919091179055620000c8565b80516200006d81620000ae565b92915050565b6000602082840312156200008657600080fd5b600062000094848462000060565b949350505050565b60006001600160a01b0382166200006d565b620000b9816200009c565b8114620000c557600080fd5b50565b6128f780620000d86000396000f3fe6080604052600436106100555760003560e01c80632999cdc7146100575780633ca9184e1461008d5780634e7ffa04146100ad5780636b9b8f8f146100c05780636d24fb96146100d3578063f4378240146100f3575b005b34801561006357600080fd5b5061007761007236600461240d565b610113565b60405161008491906127e1565b60405180910390f35b34801561009957600080fd5b506100776100a8366004612471565b6106cd565b6100776100bb36600461240d565b610c7f565b6100776100ce3660046122b8565b611150565b3480156100df57600080fd5b506100776100ee366004612309565b6116b0565b3480156100ff57600080fd5b5061007761010e366004612381565b611bf6565b60405160009033906001600160e01b031983351690610135908490369061276f565b60405180910390a260005460ff16156101695760405162461bcd60e51b8152600401610160906127a1565b60405180910390fd5b6000805460ff191660011790556040516323b872dd60e01b815283906001600160a01b038216906323b872dd906101a8903390309088906004016126d2565b602060405180830381600087803b1580156101c257600080fd5b505af11580156101d6573d6000803e3d6000fd5b505050506040513d601f19601f820116820180604052506101fa91908101906124cc565b6102165760405162461bcd60e51b8152600401610160906127c1565b60005b855181101561041a5761022a61216b565b86828151811061023657fe5b60209081029190910101518051604051636eb1769f60e11b81529192509086906001600160a01b0386169063dd62ed3e9061027790309086906004016126b0565b602060405180830381600087803b15801561029157600080fd5b505af11580156102a5573d6000803e3d6000fd5b505050506040513d601f19601f820116820180604052506102c991908101906124f2565b101561035457815160405163095ea7b360e01b81526001600160a01b0386169163095ea7b391610300919060001990600401612715565b602060405180830381600087803b15801561031a57600080fd5b505af115801561032e573d6000803e3d6000fd5b505050506040513d601f19601f8201168201806040525061035291908101906124cc565b505b6000816001600160a01b0316637c5e9ea4898560200151600060019054906101000a90046001600160a01b0316876040015188606001516040518663ffffffff1660e01b81526004016103ab959493929190612723565b6040805180830381600087803b1580156103c457600080fd5b505af11580156103d8573d6000803e3d6000fd5b505050506040513d601f19601f820116820180604052506103fc9190810190612510565b509050610409818761213d565b955050600190920191506102199050565b508282111561043b5760405162461bcd60e51b815260040161016090612791565b6040516370a0823160e01b81526001600160a01b0382169063a9059cbb90339083906370a08231906104719030906004016126a2565b602060405180830381600087803b15801561048b57600080fd5b505af115801561049f573d6000803e3d6000fd5b505050506040513d601f19601f820116820180604052506104c391908101906124f2565b6040518363ffffffff1660e01b81526004016104e09291906126fa565b602060405180830381600087803b1580156104fa57600080fd5b505af115801561050e573d6000803e3d6000fd5b505050506040513d601f19601f8201168201806040525061053291908101906124cc565b61054e5760405162461bcd60e51b8152600401610160906127c1565b600080546040516370a0823160e01b81526101009091046001600160a01b0316906370a08231906105839030906004016126a2565b602060405180830381600087803b15801561059d57600080fd5b505af11580156105b1573d6000803e3d6000fd5b505050506040513d601f19601f820116820180604052506105d591908101906124f2565b600054604051632e1a7d4d60e01b815291925061010090046001600160a01b031690632e1a7d4d9061060b9084906004016127e1565b600060405180830381600087803b15801561062557600080fd5b505af1158015610639573d6000803e3d6000fd5b505050506000336001600160a01b03168260405161065690612697565b60006040518083038185875af1925050503d8060008114610693576040519150601f19603f3d011682016040523d82523d6000602084013e610698565b606091505b50509050806106b95760405162461bcd60e51b8152600401610160906127b1565b5050506000805460ff191690559392505050565b60405160009033906001600160e01b0319833516906106ef908490369061276f565b60405180910390a260005460ff161561071a5760405162461bcd60e51b8152600401610160906127a1565b6000805460ff191660011790556040516323b872dd60e01b815284906001600160a01b038216906323b872dd90610759903390309089906004016126d2565b602060405180830381600087803b15801561077357600080fd5b505af1158015610787573d6000803e3d6000fd5b505050506040513d601f19601f820116820180604052506107ab91908101906124cc565b6107c75760405162461bcd60e51b8152600401610160906127c1565b60005b86518110156109cb576107db61216b565b8782815181106107e757fe5b60209081029190910101518051604051636eb1769f60e11b81529192509087906001600160a01b0386169063dd62ed3e9061082890309086906004016126b0565b602060405180830381600087803b15801561084257600080fd5b505af1158015610856573d6000803e3d6000fd5b505050506040513d601f19601f8201168201806040525061087a91908101906124f2565b101561090557815160405163095ea7b360e01b81526001600160a01b0386169163095ea7b3916108b1919060001990600401612715565b602060405180830381600087803b1580156108cb57600080fd5b505af11580156108df573d6000803e3d6000fd5b505050506040513d601f19601f8201168201806040525061090391908101906124cc565b505b6000816001600160a01b0316638201aa3f8a8560200151600060019054906101000a90046001600160a01b0316876040015188606001516040518663ffffffff1660e01b815260040161095c959493929190612723565b6040805180830381600087803b15801561097557600080fd5b505af1158015610989573d6000803e3d6000fd5b505050506040513d601f19601f820116820180604052506109ad9190810190612510565b5090506109ba818761213d565b955050600190920191506107ca9050565b50828210156109ec5760405162461bcd60e51b815260040161016090612781565b600080546040516370a0823160e01b81526101009091046001600160a01b0316906370a0823190610a219030906004016126a2565b602060405180830381600087803b158015610a3b57600080fd5b505af1158015610a4f573d6000803e3d6000fd5b505050506040513d601f19601f82011682018060405250610a7391908101906124f2565b600054604051632e1a7d4d60e01b815291925061010090046001600160a01b031690632e1a7d4d90610aa99084906004016127e1565b600060405180830381600087803b158015610ac357600080fd5b505af1158015610ad7573d6000803e3d6000fd5b505050506000336001600160a01b031682604051610af490612697565b60006040518083038185875af1925050503d8060008114610b31576040519150601f19603f3d011682016040523d82523d6000602084013e610b36565b606091505b5050905080610b575760405162461bcd60e51b8152600401610160906127b1565b6040516370a0823160e01b81526001600160a01b0384169063a9059cbb90339083906370a0823190610b8d9030906004016126a2565b602060405180830381600087803b158015610ba757600080fd5b505af1158015610bbb573d6000803e3d6000fd5b505050506040513d601f19601f82011682018060405250610bdf91908101906124f2565b6040518363ffffffff1660e01b8152600401610bfc9291906126fa565b602060405180830381600087803b158015610c1657600080fd5b505af1158015610c2a573d6000803e3d6000fd5b505050506040513d601f19601f82011682018060405250610c4e91908101906124cc565b610c6a5760405162461bcd60e51b8152600401610160906127c1565b5050506000805460ff19169055949350505050565b60405160009033906001600160e01b031983351690610ca1908490369061276f565b60405180910390a260005460ff1615610ccc5760405162461bcd60e51b8152600401610160906127a1565b60008054600160ff199091161780825560408051630d0e30db60e41b8152905186936101009093046001600160a01b03169263d0e30db09234926004808301939282900301818588803b158015610d2257600080fd5b505af1158015610d36573d6000803e3d6000fd5b50600093505050505b8551811015610f4657610d5061216b565b868281518110610d5c57fe5b60209081029190910101518051600054604051636eb1769f60e11b81529293509091349161010090046001600160a01b03169063dd62ed3e90610da590309086906004016126b0565b602060405180830381600087803b158015610dbf57600080fd5b505af1158015610dd3573d6000803e3d6000fd5b505050506040513d601f19601f82011682018060405250610df791908101906124f2565b1015610e8957600054825160405163095ea7b360e01b81526101009092046001600160a01b03169163095ea7b391610e359160001990600401612715565b602060405180830381600087803b158015610e4f57600080fd5b505af1158015610e63573d6000803e3d6000fd5b505050506040513d601f19601f82011682018060405250610e8791908101906124cc565b505b60008054602084015160408086015160608701519151638201aa3f60e01b81526001600160a01b0380881695638201aa3f95610ed7956101009092049092169391928f929190600401612723565b6040805180830381600087803b158015610ef057600080fd5b505af1158015610f04573d6000803e3d6000fd5b505050506040513d601f19601f82011682018060405250610f289190810190612510565b509050610f35818761213d565b95505060019092019150610d3f9050565b5082821015610f675760405162461bcd60e51b815260040161016090612781565b6040516370a0823160e01b81526001600160a01b0382169063a9059cbb90339083906370a0823190610f9d9030906004016126a2565b602060405180830381600087803b158015610fb757600080fd5b505af1158015610fcb573d6000803e3d6000fd5b505050506040513d601f19601f82011682018060405250610fef91908101906124f2565b6040518363ffffffff1660e01b815260040161100c9291906126fa565b602060405180830381600087803b15801561102657600080fd5b505af115801561103a573d6000803e3d6000fd5b505050506040513d601f19601f8201168201806040525061105e91908101906124cc565b61107a5760405162461bcd60e51b8152600401610160906127c1565b600080546040516370a0823160e01b81526101009091046001600160a01b0316906370a08231906110af9030906004016126a2565b602060405180830381600087803b1580156110c957600080fd5b505af11580156110dd573d6000803e3d6000fd5b505050506040513d601f19601f8201168201806040525061110191908101906124f2565b9050801561113d57600054604051632e1a7d4d60e01b81526101009091046001600160a01b031690632e1a7d4d9061060b9084906004016127e1565b50506000805460ff191690559392505050565b60405160009033906001600160e01b031983351690611172908490369061276f565b60405180910390a260005460ff161561119d5760405162461bcd60e51b8152600401610160906127a1565b60008054600160ff199091161780825560408051630d0e30db60e41b8152905185936101009093046001600160a01b03169263d0e30db09234926004808301939282900301818588803b1580156111f357600080fd5b505af1158015611207573d6000803e3d6000fd5b50600093505050505b84518110156114175761122161216b565b85828151811061122d57fe5b60209081029190910101518051600054604051636eb1769f60e11b81529293509091349161010090046001600160a01b03169063dd62ed3e9061127690309086906004016126b0565b602060405180830381600087803b15801561129057600080fd5b505af11580156112a4573d6000803e3d6000fd5b505050506040513d601f19601f820116820180604052506112c891908101906124f2565b101561135a57600054825160405163095ea7b360e01b81526101009092046001600160a01b03169163095ea7b3916113069160001990600401612715565b602060405180830381600087803b15801561132057600080fd5b505af1158015611334573d6000803e3d6000fd5b505050506040513d601f19601f8201168201806040525061135891908101906124cc565b505b60008054602084015160408086015160608701519151631f17a7a960e21b81526001600160a01b0380881695637c5e9ea4956113a8956101009092049092169391928e929190600401612723565b6040805180830381600087803b1580156113c157600080fd5b505af11580156113d5573d6000803e3d6000fd5b505050506040513d601f19601f820116820180604052506113f99190810190612510565b509050611406818761213d565b955050600190920191506112109050565b506040516370a0823160e01b81526001600160a01b0382169063a9059cbb90339083906370a082319061144e9030906004016126a2565b602060405180830381600087803b15801561146857600080fd5b505af115801561147c573d6000803e3d6000fd5b505050506040513d601f19601f820116820180604052506114a091908101906124f2565b6040518363ffffffff1660e01b81526004016114bd9291906126fa565b602060405180830381600087803b1580156114d757600080fd5b505af11580156114eb573d6000803e3d6000fd5b505050506040513d601f19601f8201168201806040525061150f91908101906124cc565b61152b5760405162461bcd60e51b8152600401610160906127c1565b600080546040516370a0823160e01b81526101009091046001600160a01b0316906370a08231906115609030906004016126a2565b602060405180830381600087803b15801561157a57600080fd5b505af115801561158e573d6000803e3d6000fd5b505050506040513d601f19601f820116820180604052506115b291908101906124f2565b9050801561169e57600054604051632e1a7d4d60e01b81526101009091046001600160a01b031690632e1a7d4d906115ee9084906004016127e1565b600060405180830381600087803b15801561160857600080fd5b505af115801561161c573d6000803e3d6000fd5b505050506000336001600160a01b03168260405161163990612697565b60006040518083038185875af1925050503d8060008114611676576040519150601f19603f3d011682016040523d82523d6000602084013e61167b565b606091505b505090508061169c5760405162461bcd60e51b8152600401610160906127b1565b505b50506000805460ff1916905592915050565b60405160009033906001600160e01b0319833516906116d2908490369061276f565b60405180910390a260005460ff16156116fd5760405162461bcd60e51b8152600401610160906127a1565b6000805460ff191660011790556040516323b872dd60e01b8152849084906001600160a01b038316906323b872dd9061173e903390309089906004016126d2565b602060405180830381600087803b15801561175857600080fd5b505af115801561176c573d6000803e3d6000fd5b505050506040513d601f19601f8201168201806040525061179091908101906124cc565b6117ac5760405162461bcd60e51b8152600401610160906127c1565b60005b875181101561199b576117c061216b565b8882815181106117cc57fe5b60209081029190910101518051604051636eb1769f60e11b81529192509087906001600160a01b0387169063dd62ed3e9061180d90309086906004016126b0565b602060405180830381600087803b15801561182757600080fd5b505af115801561183b573d6000803e3d6000fd5b505050506040513d601f19601f8201168201806040525061185f91908101906124f2565b10156118ea57815160405163095ea7b360e01b81526001600160a01b0387169163095ea7b391611896919060001990600401612715565b602060405180830381600087803b1580156118b057600080fd5b505af11580156118c4573d6000803e3d6000fd5b505050506040513d601f19601f820116820180604052506118e891908101906124cc565b505b6000816001600160a01b0316637c5e9ea48b85602001518c876040015188606001516040518663ffffffff1660e01b815260040161192c959493929190612723565b6040805180830381600087803b15801561194557600080fd5b505af1158015611959573d6000803e3d6000fd5b505050506040513d601f19601f8201168201806040525061197d9190810190612510565b50905061198a818861213d565b965050600190920191506117af9050565b50838311156119bc5760405162461bcd60e51b815260040161016090612791565b6040516370a0823160e01b81526001600160a01b0382169063a9059cbb90339083906370a08231906119f29030906004016126a2565b602060405180830381600087803b158015611a0c57600080fd5b505af1158015611a20573d6000803e3d6000fd5b505050506040513d601f19601f82011682018060405250611a4491908101906124f2565b6040518363ffffffff1660e01b8152600401611a619291906126fa565b602060405180830381600087803b158015611a7b57600080fd5b505af1158015611a8f573d6000803e3d6000fd5b505050506040513d601f19601f82011682018060405250611ab391908101906124cc565b611acf5760405162461bcd60e51b8152600401610160906127c1565b6040516370a0823160e01b81526001600160a01b0383169063a9059cbb90339083906370a0823190611b059030906004016126a2565b602060405180830381600087803b158015611b1f57600080fd5b505af1158015611b33573d6000803e3d6000fd5b505050506040513d601f19601f82011682018060405250611b5791908101906124f2565b6040518363ffffffff1660e01b8152600401611b749291906126fa565b602060405180830381600087803b158015611b8e57600080fd5b505af1158015611ba2573d6000803e3d6000fd5b505050506040513d601f19601f82011682018060405250611bc691908101906124cc565b611be25760405162461bcd60e51b8152600401610160906127c1565b50506000805460ff19169055949350505050565b60405160009033906001600160e01b031983351690611c18908490369061276f565b60405180910390a260005460ff1615611c435760405162461bcd60e51b8152600401610160906127a1565b6000805460ff191660011790556040516323b872dd60e01b8152859085906001600160a01b038316906323b872dd90611c8490339030908a906004016126d2565b602060405180830381600087803b158015611c9e57600080fd5b505af1158015611cb2573d6000803e3d6000fd5b505050506040513d601f19601f82011682018060405250611cd691908101906124cc565b611cf25760405162461bcd60e51b8152600401610160906127c1565b60005b8851811015611ee157611d0661216b565b898281518110611d1257fe5b60209081029190910101518051604051636eb1769f60e11b81529192509088906001600160a01b0387169063dd62ed3e90611d5390309086906004016126b0565b602060405180830381600087803b158015611d6d57600080fd5b505af1158015611d81573d6000803e3d6000fd5b505050506040513d601f19601f82011682018060405250611da591908101906124f2565b1015611e3057815160405163095ea7b360e01b81526001600160a01b0387169163095ea7b391611ddc919060001990600401612715565b602060405180830381600087803b158015611df657600080fd5b505af1158015611e0a573d6000803e3d6000fd5b505050506040513d601f19601f82011682018060405250611e2e91908101906124cc565b505b6000816001600160a01b0316638201aa3f8c85602001518d876040015188606001516040518663ffffffff1660e01b8152600401611e72959493929190612723565b6040805180830381600087803b158015611e8b57600080fd5b505af1158015611e9f573d6000803e3d6000fd5b505050506040513d601f19601f82011682018060405250611ec39190810190612510565b509050611ed0818861213d565b96505060019092019150611cf59050565b5083831015611f025760405162461bcd60e51b815260040161016090612781565b6040516370a0823160e01b81526001600160a01b0382169063a9059cbb90339083906370a0823190611f389030906004016126a2565b602060405180830381600087803b158015611f5257600080fd5b505af1158015611f66573d6000803e3d6000fd5b505050506040513d601f19601f82011682018060405250611f8a91908101906124f2565b6040518363ffffffff1660e01b8152600401611fa79291906126fa565b602060405180830381600087803b158015611fc157600080fd5b505af1158015611fd5573d6000803e3d6000fd5b505050506040513d601f19601f82011682018060405250611ff991908101906124cc565b6120155760405162461bcd60e51b8152600401610160906127c1565b6040516370a0823160e01b81526001600160a01b0383169063a9059cbb90339083906370a082319061204b9030906004016126a2565b602060405180830381600087803b15801561206557600080fd5b505af1158015612079573d6000803e3d6000fd5b505050506040513d601f19601f8201168201806040525061209d91908101906124f2565b6040518363ffffffff1660e01b81526004016120ba9291906126fa565b602060405180830381600087803b1580156120d457600080fd5b505af11580156120e8573d6000803e3d6000fd5b505050506040513d601f19601f8201168201806040525061210c91908101906124cc565b6121285760405162461bcd60e51b8152600401610160906127c1565b50506000805460ff1916905595945050505050565b6000828201838110156121625760405162461bcd60e51b8152600401610160906127d1565b90505b92915050565b604051806080016040528060006001600160a01b031681526020016000815260200160008152602001600081525090565b80356121658161288b565b600082601f8301126121b857600080fd5b81356121cb6121c682612816565b6127ef565b915081818352602084019350602081019050838560808402820111156121f057600080fd5b60005b8381101561221e57816122068882612233565b845250602090920191608091909101906001016121f3565b5050505092915050565b8051612165816128a2565b60006080828403121561224557600080fd5b61224f60806127ef565b9050600061225d848461219c565b825250602061226e848483016122a2565b6020830152506040612282848285016122a2565b6040830152506060612296848285016122a2565b60608301525092915050565b8035612165816128ab565b8051612165816128ab565b600080604083850312156122cb57600080fd5b823567ffffffffffffffff8111156122e257600080fd5b6122ee858286016121a7565b92505060206122ff8582860161219c565b9150509250929050565b6000806000806080858703121561231f57600080fd5b843567ffffffffffffffff81111561233657600080fd5b612342878288016121a7565b94505060206123538782880161219c565b93505060406123648782880161219c565b9250506060612375878288016122a2565b91505092959194509250565b600080600080600060a0868803121561239957600080fd5b853567ffffffffffffffff8111156123b057600080fd5b6123bc888289016121a7565b95505060206123cd8882890161219c565b94505060406123de8882890161219c565b93505060606123ef888289016122a2565b9250506080612400888289016122a2565b9150509295509295909350565b60008060006060848603121561242257600080fd5b833567ffffffffffffffff81111561243957600080fd5b612445868287016121a7565b93505060206124568682870161219c565b9250506040612467868287016122a2565b9150509250925092565b6000806000806080858703121561248757600080fd5b843567ffffffffffffffff81111561249e57600080fd5b6124aa878288016121a7565b94505060206124bb8782880161219c565b9350506040612364878288016122a2565b6000602082840312156124de57600080fd5b60006124ea8484612228565b949350505050565b60006020828403121561250457600080fd5b60006124ea84846122ad565b6000806040838503121561252357600080fd5b600061252f85856122ad565b92505060206122ff858286016122ad565b61254981612864565b82525050565b61254981612845565b60006125648385612837565b9350612571838584612875565b61257a83612881565b9093019392505050565b6000612591600d83612837565b6c11549497d31253525517d3d555609a1b815260200192915050565b60006125ba600c83612837565b6b22a9292fa624a6a4aa2fa4a760a11b815260200192915050565b60006125e2600b83612837565b6a4552525f5245454e54525960a81b815260200192915050565b6000612609600e83612837565b6d11549497d1551217d1905253115160921b815260200192915050565b6000612165600083612840565b6000612640601383612837565b7211549497d514905394d1915497d19052531151606a1b815260200192915050565b600061266f601083612837565b6f4552525f4144445f4f564552464c4f5760801b815260200192915050565b61254981612861565b600061216582612626565b602081016121658284612540565b604081016126be8285612540565b6126cb602083018461254f565b9392505050565b606081016126e08286612540565b6126ed6020830185612540565b6124ea604083018461268e565b604081016127088285612540565b6126cb602083018461268e565b60408101612708828561254f565b60a08101612731828861254f565b61273e602083018761268e565b61274b604083018661254f565b612758606083018561268e565b612765608083018461268e565b9695505050505050565b602080825281016124ea818486612558565b6020808252810161216581612584565b60208082528101612165816125ad565b60208082528101612165816125d5565b60208082528101612165816125fc565b6020808252810161216581612633565b6020808252810161216581612662565b60208101612165828461268e565b60405181810167ffffffffffffffff8111828210171561280e57600080fd5b604052919050565b600067ffffffffffffffff82111561282d57600080fd5b5060209081020190565b90815260200190565b919050565b600061216582612855565b151590565b6001600160a01b031690565b90565b600061216582600061216582612845565b82818337506000910152565b601f01601f191690565b61289481612845565b811461289f57600080fd5b50565b61289481612850565b6128948161286156fea365627a7a723158206f2a29e76aa0e73f189893f2387fcac7c90822242d86decbfa743eecacfda8186c6578706572696d656e74616cf564736f6c634300050c0040",
  "linkReferences": {},
  "deployedLinkReferences": {}
}